{
  "_format": "hh-sol-artifact-1",
  "contractName": "MedLedgerDonor",
  "sourceName": "contracts/MedLedgerDonor.sol",
  "abi": [
    {
      "anonymous": false,
      "inputs": [
        {
          "indexed": true,
          "internalType": "uint256",
          "name": "donorId",
          "type": "uint256"
        },
        {
          "indexed": false,
          "internalType": "string",
          "name": "ipfsUrl",
          "type": "string"
        }
      ],
      "name": "DonorRegistered",
      "type": "event"
    },
    {
      "inputs": [],
      "name": "donorCount",
      "outputs": [
        {
          "internalType": "uint256",
          "name": "",
          "type": "uint256"
        }
      ],
      "stateMutability": "view",
      "type": "function"
    },
    {
      "inputs": [
        {
          "internalType": "uint256",
          "name": "",
          "type": "uint256"
        }
      ],
      "name": "donorRecords",
      "outputs": [
        {
          "internalType": "string",
          "name": "",
          "type": "string"
        }
      ],
      "stateMutability": "view",
      "type": "function"
    },
    {
      "inputs": [
        {
          "internalType": "uint256",
          "name": "donorId",
          "type": "uint256"
        }
      ],
      "name": "getRecord",
      "outputs": [
        {
          "internalType": "string",
          "name": "",
          "type": "string"
        }
      ],
      "stateMutability": "view",
      "type": "function"
    },
    {
      "inputs": [
        {
          "internalType": "string",
          "name": "ipfsUrl",
          "type": "string"
        }
      ],
      "name": "registerDonor",
      "outputs": [
        {
          "internalType": "uint256",
          "name": "",
          "type": "uint256"
        }
      ],
      "stateMutability": "nonpayable",
      "type": "function"
    }
  ],
  "bytecode": "0x608060405234801561001057600080fd5b50610927806100206000396000f3fe608060405234801561001057600080fd5b506004361061004c5760003560e01c806303e9e609146100515780634cf1867d14610081578063c407670f146100b1578063f10155a5146100cf575b600080fd5b61006b60048036038101906100669190610315565b6100ff565b60405161007891906103d2565b60405180910390f35b61009b60048036038101906100969190610529565b6101a4565b6040516100a89190610581565b60405180910390f35b6100b9610225565b6040516100c69190610581565b60405180910390f35b6100e960048036038101906100e49190610315565b61022b565b6040516100f691906103d2565b60405180910390f35b606060016000838152602001908152602001600020805461011f906105cb565b80601f016020809104026020016040519081016040528092919081815260200182805461014b906105cb565b80156101985780601f1061016d57610100808354040283529160200191610198565b820191906000526020600020905b81548152906001019060200180831161017b57829003601f168201915b50505050509050919050565b6000806000549050826001600083815260200190815260200160002090816101cc91906107a8565b506000808154809291906101df906108a9565b9190505550807f1bdcce1ea9671bb80abfa7dd6df7db3c66d992217b7128a264aacaa9c66377288460405161021491906103d2565b60405180910390a280915050919050565b60005481565b6001602052806000526040600020600091509050805461024a906105cb565b80601f0160208091040260200160405190810160405280929190818152602001828054610276906105cb565b80156102c35780601f10610298576101008083540402835291602001916102c3565b820191906000526020600020905b8154815290600101906020018083116102a657829003601f168201915b505050505081565b6000604051905090565b600080fd5b600080fd5b6000819050919050565b6102f2816102df565b81146102fd57600080fd5b50565b60008135905061030f816102e9565b92915050565b60006020828403121561032b5761032a6102d5565b5b600061033984828501610300565b91505092915050565b600081519050919050565b600082825260208201905092915050565b60005b8381101561037c578082015181840152602081019050610361565b60008484015250505050565b6000601f19601f8301169050919050565b60006103a482610342565b6103ae818561034d565b93506103be81856020860161035e565b6103c781610388565b840191505092915050565b600060208201905081810360008301526103ec8184610399565b905092915050565b600080fd5b600080fd5b7f4e487b7100000000000000000000000000000000000000000000000000000000600052604160045260246000fd5b61043682610388565b810181811067ffffffffffffffff82111715610455576104546103fe565b5b80604052505050565b60006104686102cb565b9050610474828261042d565b919050565b600067ffffffffffffffff821115610494576104936103fe565b5b61049d82610388565b9050602081019050919050565b82818337600083830152505050565b60006104cc6104c784610479565b61045e565b9050828152602081018484840111156104e8576104e76103f9565b5b6104f38482856104aa565b509392505050565b600082601f8301126105105761050f6103f4565b5b81356105208482602086016104b9565b91505092915050565b60006020828403121561053f5761053e6102d5565b5b600082013567ffffffffffffffff81111561055d5761055c6102da565b5b610569848285016104fb565b91505092915050565b61057b816102df565b82525050565b60006020820190506105966000830184610572565b92915050565b7f4e487b7100000000000000000000000000000000000000000000000000000000600052602260045260246000fd5b600060028204905060018216806105e357607f821691505b6020821081036105f6576105f561059c565b5b50919050565b60008190508160005260206000209050919050565b60006020601f8301049050919050565b600082821b905092915050565b60006008830261065e7fffffffffffffffffffffffffffffffffffffffffffffffffffffffffffffffff82610621565b6106688683610621565b95508019841693508086168417925050509392505050565b6000819050919050565b60006106a56106a061069b846102df565b610680565b6102df565b9050919050565b6000819050919050565b6106bf8361068a565b6106d36106cb826106ac565b84845461062e565b825550505050565b600090565b6106e86106db565b6106f38184846106b6565b505050565b5b818110156107175761070c6000826106e0565b6001810190506106f9565b5050565b601f82111561075c5761072d816105fc565b61073684610611565b81016020851015610745578190505b61075961075185610611565b8301826106f8565b50505b505050565b600082821c905092915050565b600061077f60001984600802610761565b1980831691505092915050565b6000610798838361076e565b9150826002028217905092915050565b6107b182610342565b67ffffffffffffffff8111156107ca576107c96103fe565b5b6107d482546105cb565b6107df82828561071b565b600060209050601f8311600181146108125760008415610800578287015190505b61080a858261078c565b865550610872565b601f198416610820866105fc565b60005b8281101561084857848901518255600182019150602085019450602081019050610823565b868310156108655784890151610861601f89168261076e565b8355505b6001600288020188555050505b505050505050565b7f4e487b7100000000000000000000000000000000000000000000000000000000600052601160045260246000fd5b60006108b4826102df565b91507fffffffffffffffffffffffffffffffffffffffffffffffffffffffffffffffff82036108e6576108e561087a565b5b60018201905091905056fea2646970667358221220f454d3bdfe5ae14b4b8a2db4cadf5e47098df5ad71585b76c09db0d7f3036f5b64736f6c63430008140033",
  "linkReferences": {},
  "deployedLinkReferences": {}
}