{
  "_format": "hh-sol-artifact-1",
  "contractName": "MedLedgerOrgan",
  "sourceName": "contracts/MedLedgerOrgan.sol",
  "abi": [
    {
      "anonymous": false,
      "inputs": [
        {
          "indexed": false,
          "internalType": "string",
          "name": "key",
          "type": "string"
        },
        {
          "indexed": false,
          "internalType": "string",
          "name": "value",
          "type": "string"
        }
      ],
      "name": "Debug",
      "type": "event"
    },
    {
      "anonymous": false,
      "inputs": [
        {
          "indexed": true,
          "internalType": "uint256",
          "name": "id",
          "type": "uint256"
        },
        {
          "indexed": false,
          "internalType": "string",
          "name": "name",
          "type": "string"
        }
      ],
      "name": "DonorRegistered",
      "type": "event"
    },
    {
      "inputs": [],
      "name": "donorCount",
      "outputs": [
        {
          "internalType": "uint256",
          "name": "",
          "type": "uint256"
        }
      ],
      "stateMutability": "view",
      "type": "function"
    },
    {
      "inputs": [
        {
          "internalType": "uint256",
          "name": "",
          "type": "uint256"
        }
      ],
      "name": "donors",
      "outputs": [
        {
          "internalType": "string",
          "name": "name",
          "type": "string"
        },
        {
          "internalType": "string",
          "name": "organ",
          "type": "string"
        },
        {
          "internalType": "string",
          "name": "bloodGroup",
          "type": "string"
        },
        {
          "internalType": "string",
          "name": "location",
          "type": "string"
        },
        {
          "internalType": "string",
          "name": "ipfsHash",
          "type": "string"
        },
        {
          "internalType": "bool",
          "name": "consent",
          "type": "bool"
        }
      ],
      "stateMutability": "view",
      "type": "function"
    },
    {
      "inputs": [
        {
          "internalType": "uint256",
          "name": "id",
          "type": "uint256"
        }
      ],
      "name": "getDonorById",
      "outputs": [
        {
          "components": [
            {
              "internalType": "string",
              "name": "name",
              "type": "string"
            },
            {
              "internalType": "string",
              "name": "organ",
              "type": "string"
            },
            {
              "internalType": "string",
              "name": "bloodGroup",
              "type": "string"
            },
            {
              "internalType": "string",
              "name": "location",
              "type": "string"
            },
            {
              "internalType": "string",
              "name": "ipfsHash",
              "type": "string"
            },
            {
              "internalType": "bool",
              "name": "consent",
              "type": "bool"
            }
          ],
          "internalType": "struct MedLedgerOrgan.Donor",
          "name": "",
          "type": "tuple"
        }
      ],
      "stateMutability": "view",
      "type": "function"
    },
    {
      "inputs": [
        {
          "internalType": "string",
          "name": "name",
          "type": "string"
        },
        {
          "internalType": "string",
          "name": "organ",
          "type": "string"
        },
        {
          "internalType": "string",
          "name": "bloodGroup",
          "type": "string"
        },
        {
          "internalType": "string",
          "name": "location",
          "type": "string"
        },
        {
          "internalType": "string",
          "name": "ipfsHash",
          "type": "string"
        },
        {
          "internalType": "bool",
          "name": "consent",
          "type": "bool"
        }
      ],
      "name": "registerDonor",
      "outputs": [],
      "stateMutability": "nonpayable",
      "type": "function"
    },
    {
      "inputs": [
        {
          "internalType": "uint256",
          "name": "id",
          "type": "uint256"
        }
      ],
      "name": "verifyConsent",
      "outputs": [
        {
          "internalType": "bool",
          "name": "",
          "type": "bool"
        }
      ],
      "stateMutability": "view",
      "type": "function"
    }
  ],
  "bytecode": "0x608060405234801561001057600080fd5b506116cd806100206000396000f3fe608060405234801561001057600080fd5b50600436106100575760003560e01c80634abfa1631461005c5780639b22725814610091578063a86f809a146100ad578063c407670f146100dd578063c7bc45d0146100fb575b600080fd5b61007660048036038101906100719190610adf565b61012b565b60405161008896959493929190610bb7565b60405180910390f35b6100ab60048036038101906100a69190610d9c565b61041c565b005b6100c760048036038101906100c29190610adf565b61070a565b6040516100d49190610fb3565b60405180910390f35b6100e5610a2b565b6040516100f29190610fe4565b60405180910390f35b61011560048036038101906101109190610adf565b610a31565b6040516101229190610fff565b60405180910390f35b600060205280600052604060002060009150905080600001805461014e90611049565b80601f016020809104026020016040519081016040528092919081815260200182805461017a90611049565b80156101c75780601f1061019c576101008083540402835291602001916101c7565b820191906000526020600020905b8154815290600101906020018083116101aa57829003601f168201915b5050505050908060010180546101dc90611049565b80601f016020809104026020016040519081016040528092919081815260200182805461020890611049565b80156102555780601f1061022a57610100808354040283529160200191610255565b820191906000526020600020905b81548152906001019060200180831161023857829003601f168201915b50505050509080600201805461026a90611049565b80601f016020809104026020016040519081016040528092919081815260200182805461029690611049565b80156102e35780601f106102b8576101008083540402835291602001916102e3565b820191906000526020600020905b8154815290600101906020018083116102c657829003601f168201915b5050505050908060030180546102f890611049565b80601f016020809104026020016040519081016040528092919081815260200182805461032490611049565b80156103715780601f1061034657610100808354040283529160200191610371565b820191906000526020600020905b81548152906001019060200180831161035457829003601f168201915b50505050509080600401805461038690611049565b80601f01602080910402602001604051908101604052809291908181526020018280546103b290611049565b80156103ff5780601f106103d4576101008083540402835291602001916103ff565b820191906000526020600020905b8154815290600101906020018083116103e257829003601f168201915b5050505050908060050160009054906101000a900460ff16905086565b7f747eaa98d4c6787fb9ebfa7ba00179a57433dbd57fd28208b7a240d949164a098660405161044b91906110c6565b60405180910390a17f747eaa98d4c6787fb9ebfa7ba00179a57433dbd57fd28208b7a240d949164a09856040516104829190611147565b60405180910390a17f747eaa98d4c6787fb9ebfa7ba00179a57433dbd57fd28208b7a240d949164a09846040516104b991906111c8565b60405180910390a17f747eaa98d4c6787fb9ebfa7ba00179a57433dbd57fd28208b7a240d949164a09836040516104f09190611249565b60405180910390a17f747eaa98d4c6787fb9ebfa7ba00179a57433dbd57fd28208b7a240d949164a098260405161052791906112ca565b60405180910390a17f747eaa98d4c6787fb9ebfa7ba00179a57433dbd57fd28208b7a240d949164a0981610590576040518060400160405280600581526020017f66616c73650000000000000000000000000000000000000000000000000000008152506105c7565b6040518060400160405280600481526020017f74727565000000000000000000000000000000000000000000000000000000008152505b6040516105d4919061134b565b60405180910390a16040518060c0016040528087815260200186815260200185815260200184815260200183815260200182151581525060008060015481526020019081526020016000206000820151816000019081610634919061152c565b50602082015181600101908161064a919061152c565b506040820151816002019081610660919061152c565b506060820151816003019081610676919061152c565b50608082015181600401908161068c919061152c565b5060a08201518160050160006101000a81548160ff0219169083151502179055509050506001547f1bdcce1ea9671bb80abfa7dd6df7db3c66d992217b7128a264aacaa9c6637728876040516106e291906115fe565b60405180910390a2600160008154809291906106fd9061164f565b9190505550505050505050565b610712610a5d565b6000808381526020019081526020016000206040518060c001604052908160008201805461073f90611049565b80601f016020809104026020016040519081016040528092919081815260200182805461076b90611049565b80156107b85780601f1061078d576101008083540402835291602001916107b8565b820191906000526020600020905b81548152906001019060200180831161079b57829003601f168201915b505050505081526020016001820180546107d190611049565b80601f01602080910402602001604051908101604052809291908181526020018280546107fd90611049565b801561084a5780601f1061081f5761010080835404028352916020019161084a565b820191906000526020600020905b81548152906001019060200180831161082d57829003601f168201915b5050505050815260200160028201805461086390611049565b80601f016020809104026020016040519081016040528092919081815260200182805461088f90611049565b80156108dc5780601f106108b1576101008083540402835291602001916108dc565b820191906000526020600020905b8154815290600101906020018083116108bf57829003601f168201915b505050505081526020016003820180546108f590611049565b80601f016020809104026020016040519081016040528092919081815260200182805461092190611049565b801561096e5780601f106109435761010080835404028352916020019161096e565b820191906000526020600020905b81548152906001019060200180831161095157829003601f168201915b5050505050815260200160048201805461098790611049565b80601f01602080910402602001604051908101604052809291908181526020018280546109b390611049565b8015610a005780601f106109d557610100808354040283529160200191610a00565b820191906000526020600020905b8154815290600101906020018083116109e357829003601f168201915b505050505081526020016005820160009054906101000a900460ff1615151515815250509050919050565b60015481565b600080600083815260200190815260200160002060050160009054906101000a900460ff169050919050565b6040518060c0016040528060608152602001606081526020016060815260200160608152602001606081526020016000151581525090565b6000604051905090565b600080fd5b600080fd5b6000819050919050565b610abc81610aa9565b8114610ac757600080fd5b50565b600081359050610ad981610ab3565b92915050565b600060208284031215610af557610af4610a9f565b5b6000610b0384828501610aca565b91505092915050565b600081519050919050565b600082825260208201905092915050565b60005b83811015610b46578082015181840152602081019050610b2b565b60008484015250505050565b6000601f19601f8301169050919050565b6000610b6e82610b0c565b610b788185610b17565b9350610b88818560208601610b28565b610b9181610b52565b840191505092915050565b60008115159050919050565b610bb181610b9c565b82525050565b600060c0820190508181036000830152610bd18189610b63565b90508181036020830152610be58188610b63565b90508181036040830152610bf98187610b63565b90508181036060830152610c0d8186610b63565b90508181036080830152610c218185610b63565b9050610c3060a0830184610ba8565b979650505050505050565b600080fd5b600080fd5b7f4e487b7100000000000000000000000000000000000000000000000000000000600052604160045260246000fd5b610c7d82610b52565b810181811067ffffffffffffffff82111715610c9c57610c9b610c45565b5b80604052505050565b6000610caf610a95565b9050610cbb8282610c74565b919050565b600067ffffffffffffffff821115610cdb57610cda610c45565b5b610ce482610b52565b9050602081019050919050565b82818337600083830152505050565b6000610d13610d0e84610cc0565b610ca5565b905082815260208101848484011115610d2f57610d2e610c40565b5b610d3a848285610cf1565b509392505050565b600082601f830112610d5757610d56610c3b565b5b8135610d67848260208601610d00565b91505092915050565b610d7981610b9c565b8114610d8457600080fd5b50565b600081359050610d9681610d70565b92915050565b60008060008060008060c08789031215610db957610db8610a9f565b5b600087013567ffffffffffffffff811115610dd757610dd6610aa4565b5b610de389828a01610d42565b965050602087013567ffffffffffffffff811115610e0457610e03610aa4565b5b610e1089828a01610d42565b955050604087013567ffffffffffffffff811115610e3157610e30610aa4565b5b610e3d89828a01610d42565b945050606087013567ffffffffffffffff811115610e5e57610e5d610aa4565b5b610e6a89828a01610d42565b935050608087013567ffffffffffffffff811115610e8b57610e8a610aa4565b5b610e9789828a01610d42565b92505060a0610ea889828a01610d87565b9150509295509295509295565b600082825260208201905092915050565b6000610ed182610b0c565b610edb8185610eb5565b9350610eeb818560208601610b28565b610ef481610b52565b840191505092915050565b610f0881610b9c565b82525050565b600060c0830160008301518482036000860152610f2b8282610ec6565b91505060208301518482036020860152610f458282610ec6565b91505060408301518482036040860152610f5f8282610ec6565b91505060608301518482036060860152610f798282610ec6565b91505060808301518482036080860152610f938282610ec6565b91505060a0830151610fa860a0860182610eff565b508091505092915050565b60006020820190508181036000830152610fcd8184610f0e565b905092915050565b610fde81610aa9565b82525050565b6000602082019050610ff96000830184610fd5565b92915050565b60006020820190506110146000830184610ba8565b92915050565b7f4e487b7100000000000000000000000000000000000000000000000000000000600052602260045260246000fd5b6000600282049050600182168061106157607f821691505b6020821081036110745761107361101a565b5b50919050565b7f4e616d6500000000000000000000000000000000000000000000000000000000600082015250565b60006110b0600483610b17565b91506110bb8261107a565b602082019050919050565b600060408201905081810360008301526110df816110a3565b905081810360208301526110f38184610b63565b905092915050565b7f4f7267616e000000000000000000000000000000000000000000000000000000600082015250565b6000611131600583610b17565b915061113c826110fb565b602082019050919050565b6000604082019050818103600083015261116081611124565b905081810360208301526111748184610b63565b905092915050565b7f426c6f6f6447726f757000000000000000000000000000000000000000000000600082015250565b60006111b2600a83610b17565b91506111bd8261117c565b602082019050919050565b600060408201905081810360008301526111e1816111a5565b905081810360208301526111f58184610b63565b905092915050565b7f4c6f636174696f6e000000000000000000000000000000000000000000000000600082015250565b6000611233600883610b17565b915061123e826111fd565b602082019050919050565b6000604082019050818103600083015261126281611226565b905081810360208301526112768184610b63565b905092915050565b7f4349440000000000000000000000000000000000000000000000000000000000600082015250565b60006112b4600383610b17565b91506112bf8261127e565b602082019050919050565b600060408201905081810360008301526112e3816112a7565b905081810360208301526112f78184610b63565b905092915050565b7f436f6e73656e7400000000000000000000000000000000000000000000000000600082015250565b6000611335600783610b17565b9150611340826112ff565b602082019050919050565b6000604082019050818103600083015261136481611328565b905081810360208301526113788184610b63565b905092915050565b60008190508160005260206000209050919050565b60006020601f8301049050919050565b600082821b905092915050565b6000600883026113e27fffffffffffffffffffffffffffffffffffffffffffffffffffffffffffffffff826113a5565b6113ec86836113a5565b95508019841693508086168417925050509392505050565b6000819050919050565b600061142961142461141f84610aa9565b611404565b610aa9565b9050919050565b6000819050919050565b6114438361140e565b61145761144f82611430565b8484546113b2565b825550505050565b600090565b61146c61145f565b61147781848461143a565b505050565b5b8181101561149b57611490600082611464565b60018101905061147d565b5050565b601f8211156114e0576114b181611380565b6114ba84611395565b810160208510156114c9578190505b6114dd6114d585611395565b83018261147c565b50505b505050565b600082821c905092915050565b6000611503600019846008026114e5565b1980831691505092915050565b600061151c83836114f2565b9150826002028217905092915050565b61153582610b0c565b67ffffffffffffffff81111561154e5761154d610c45565b5b6115588254611049565b61156382828561149f565b600060209050601f8311600181146115965760008415611584578287015190505b61158e8582611510565b8655506115f6565b601f1984166115a486611380565b60005b828110156115cc578489015182556001820191506020850194506020810190506115a7565b868310156115e957848901516115e5601f8916826114f2565b8355505b6001600288020188555050505b505050505050565b600060208201905081810360008301526116188184610b63565b905092915050565b7f4e487b7100000000000000000000000000000000000000000000000000000000600052601160045260246000fd5b600061165a82610aa9565b91507fffffffffffffffffffffffffffffffffffffffffffffffffffffffffffffffff820361168c5761168b611620565b5b60018201905091905056fea26469706673582212207c82b70fc1ace1735c589f6da5f0638517258e778e16ac69c9bd372db0de2d5f64736f6c63430008140033",
  "linkReferences": {},
  "deployedLinkReferences": {}
}