{
  "_format": "hh-sol-artifact-1",
  "contractName": "MedLedger",
  "sourceName": "contracts/MedLedger.sol",
  "abi": [
    {
      "anonymous": false,
      "inputs": [
        {
          "indexed": true,
          "internalType": "uint256",
          "name": "tokenId",
          "type": "uint256"
        },
        {
          "indexed": false,
          "internalType": "string",
          "name": "name",
          "type": "string"
        },
        {
          "indexed": false,
          "internalType": "string",
          "name": "batch",
          "type": "string"
        },
        {
          "indexed": false,
          "internalType": "string",
          "name": "expiry",
          "type": "string"
        },
        {
          "indexed": false,
          "internalType": "string",
          "name": "cid",
          "type": "string"
        }
      ],
      "name": "MedicineRegistered",
      "type": "event"
    },
    {
      "inputs": [
        {
          "internalType": "uint256",
          "name": "",
          "type": "uint256"
        }
      ],
      "name": "medicines",
      "outputs": [
        {
          "internalType": "string",
          "name": "name",
          "type": "string"
        },
        {
          "internalType": "string",
          "name": "batch",
          "type": "string"
        },
        {
          "internalType": "string",
          "name": "expiry",
          "type": "string"
        },
        {
          "internalType": "string",
          "name": "cid",
          "type": "string"
        }
      ],
      "stateMutability": "view",
      "type": "function"
    },
    {
      "inputs": [
        {
          "internalType": "string",
          "name": "name",
          "type": "string"
        },
        {
          "internalType": "string",
          "name": "batch",
          "type": "string"
        },
        {
          "internalType": "string",
          "name": "expiry",
          "type": "string"
        },
        {
          "internalType": "string",
          "name": "cid",
          "type": "string"
        }
      ],
      "name": "registerMedicine",
      "outputs": [],
      "stateMutability": "nonpayable",
      "type": "function"
    }
  ],
  "bytecode": "0x608060405234801561001057600080fd5b50610af9806100206000396000f3fe608060405234801561001057600080fd5b50600436106100365760003560e01c8063c85e766d1461003b578063dcb913971461006e575b600080fd5b61005560048036038101906100509190610429565b61008a565b60405161006594939291906104e6565b60405180910390f35b6100886004803603810190610083919061067c565b6102da565b005b60006020528060005260406000206000915090508060000180546100ad90610782565b80601f01602080910402602001604051908101604052809291908181526020018280546100d990610782565b80156101265780601f106100fb57610100808354040283529160200191610126565b820191906000526020600020905b81548152906001019060200180831161010957829003601f168201915b50505050509080600101805461013b90610782565b80601f016020809104026020016040519081016040528092919081815260200182805461016790610782565b80156101b45780601f10610189576101008083540402835291602001916101b4565b820191906000526020600020905b81548152906001019060200180831161019757829003601f168201915b5050505050908060020180546101c990610782565b80601f01602080910402602001604051908101604052809291908181526020018280546101f590610782565b80156102425780601f1061021757610100808354040283529160200191610242565b820191906000526020600020905b81548152906001019060200180831161022557829003601f168201915b50505050509080600301805461025790610782565b80601f016020809104026020016040519081016040528092919081815260200182805461028390610782565b80156102d05780601f106102a5576101008083540402835291602001916102d0565b820191906000526020600020905b8154815290600101906020018083116102b357829003601f168201915b5050505050905084565b60008484426040516020016102f193929190610810565b6040516020818303038152906040528051906020012060001c9050604051806080016040528086815260200185815260200184815260200183815250600080838152602001908152602001600020600082015181600001908161035491906109f1565b50602082015181600101908161036a91906109f1565b50604082015181600201908161038091906109f1565b50606082015181600301908161039691906109f1565b50905050807fcfeaf28b33b2201dd8b0ff1cab421f814ead3964fe72601b01fe6a77833c2d02868686866040516103d094939291906104e6565b60405180910390a25050505050565b6000604051905090565b600080fd5b600080fd5b6000819050919050565b610406816103f3565b811461041157600080fd5b50565b600081359050610423816103fd565b92915050565b60006020828403121561043f5761043e6103e9565b5b600061044d84828501610414565b91505092915050565b600081519050919050565b600082825260208201905092915050565b60005b83811015610490578082015181840152602081019050610475565b60008484015250505050565b6000601f19601f8301169050919050565b60006104b882610456565b6104c28185610461565b93506104d2818560208601610472565b6104db8161049c565b840191505092915050565b6000608082019050818103600083015261050081876104ad565b9050818103602083015261051481866104ad565b9050818103604083015261052881856104ad565b9050818103606083015261053c81846104ad565b905095945050505050565b600080fd5b600080fd5b7f4e487b7100000000000000000000000000000000000000000000000000000000600052604160045260246000fd5b6105898261049c565b810181811067ffffffffffffffff821117156105a8576105a7610551565b5b80604052505050565b60006105bb6103df565b90506105c78282610580565b919050565b600067ffffffffffffffff8211156105e7576105e6610551565b5b6105f08261049c565b9050602081019050919050565b82818337600083830152505050565b600061061f61061a846105cc565b6105b1565b90508281526020810184848401111561063b5761063a61054c565b5b6106468482856105fd565b509392505050565b600082601f83011261066357610662610547565b5b813561067384826020860161060c565b91505092915050565b60008060008060808587031215610696576106956103e9565b5b600085013567ffffffffffffffff8111156106b4576106b36103ee565b5b6106c08782880161064e565b945050602085013567ffffffffffffffff8111156106e1576106e06103ee565b5b6106ed8782880161064e565b935050604085013567ffffffffffffffff81111561070e5761070d6103ee565b5b61071a8782880161064e565b925050606085013567ffffffffffffffff81111561073b5761073a6103ee565b5b6107478782880161064e565b91505092959194509250565b7f4e487b7100000000000000000000000000000000000000000000000000000000600052602260045260246000fd5b6000600282049050600182168061079a57607f821691505b6020821081036107ad576107ac610753565b5b50919050565b600081905092915050565b60006107c982610456565b6107d381856107b3565b93506107e3818560208601610472565b80840191505092915050565b6000819050919050565b61080a610805826103f3565b6107ef565b82525050565b600061081c82866107be565b915061082882856107be565b915061083482846107f9565b602082019150819050949350505050565b60008190508160005260206000209050919050565b60006020601f8301049050919050565b600082821b905092915050565b6000600883026108a77fffffffffffffffffffffffffffffffffffffffffffffffffffffffffffffffff8261086a565b6108b1868361086a565b95508019841693508086168417925050509392505050565b6000819050919050565b60006108ee6108e96108e4846103f3565b6108c9565b6103f3565b9050919050565b6000819050919050565b610908836108d3565b61091c610914826108f5565b848454610877565b825550505050565b600090565b610931610924565b61093c8184846108ff565b505050565b5b8181101561096057610955600082610929565b600181019050610942565b5050565b601f8211156109a55761097681610845565b61097f8461085a565b8101602085101561098e578190505b6109a261099a8561085a565b830182610941565b50505b505050565b600082821c905092915050565b60006109c8600019846008026109aa565b1980831691505092915050565b60006109e183836109b7565b9150826002028217905092915050565b6109fa82610456565b67ffffffffffffffff811115610a1357610a12610551565b5b610a1d8254610782565b610a28828285610964565b600060209050601f831160018114610a5b5760008415610a49578287015190505b610a5385826109d5565b865550610abb565b601f198416610a6986610845565b60005b82811015610a9157848901518255600182019150602085019450602081019050610a6c565b86831015610aae5784890151610aaa601f8916826109b7565b8355505b6001600288020188555050505b50505050505056fea2646970667358221220a7530c2a1ee9820ecad2db332e84ea4135efb43b26bb6efd0a3b90f3496aa37a64736f6c63430008140033",
  "linkReferences": {},
  "deployedLinkReferences": {}
}