{
  "_format": "hh-sol-artifact-1",
  "contractName": "MedLedgerDonor",
  "sourceName": "contracts/MedLedgerDonor.sol",
  "abi": [
    {
      "anonymous": false,
      "inputs": [
        {
          "indexed": true,
          "internalType": "uint256",
          "name": "tokenId",
          "type": "uint256"
        },
        {
          "indexed": false,
          "internalType": "string",
          "name": "ipfsUrl",
          "type": "string"
        }
      ],
      "name": "DonorRecordStored",
      "type": "event"
    },
    {
      "inputs": [
        {
          "internalType": "uint256",
          "name": "",
          "type": "uint256"
        }
      ],
      "name": "donorRecords",
      "outputs": [
        {
          "internalType": "string",
          "name": "",
          "type": "string"
        }
      ],
      "stateMutability": "view",
      "type": "function"
    },
    {
      "inputs": [
        {
          "internalType": "uint256",
          "name": "tokenId",
          "type": "uint256"
        }
      ],
      "name": "getRecord",
      "outputs": [
        {
          "internalType": "string",
          "name": "",
          "type": "string"
        }
      ],
      "stateMutability": "view",
      "type": "function"
    },
    {
      "inputs": [
        {
          "internalType": "uint256",
          "name": "tokenId",
          "type": "uint256"
        },
        {
          "internalType": "string",
          "name": "ipfsUrl",
          "type": "string"
        }
      ],
      "name": "storeRecord",
      "outputs": [],
      "stateMutability": "nonpayable",
      "type": "function"
    }
  ],
  "bytecode": "0x608060405234801561001057600080fd5b50610830806100206000396000f3fe608060405234801561001057600080fd5b50600436106100415760003560e01c806303e9e60914610046578063cde2d23b14610076578063f10155a514610092575b600080fd5b610060600480360381019061005b91906102ac565b6100c2565b60405161006d9190610369565b60405180910390f35b610090600480360381019061008b91906104c0565b610166565b005b6100ac60048036038101906100a791906102ac565b6101c2565b6040516100b99190610369565b60405180910390f35b606060008083815260200190815260200160002080546100e19061054b565b80601f016020809104026020016040519081016040528092919081815260200182805461010d9061054b565b801561015a5780601f1061012f5761010080835404028352916020019161015a565b820191906000526020600020905b81548152906001019060200180831161013d57829003601f168201915b50505050509050919050565b8060008084815260200190815260200160002090816101859190610728565b50817f69b6581f322890770a6cc36c30fe6b623fc35ea7893528fedc7a24d83484a97c826040516101b69190610369565b60405180910390a25050565b600060205280600052604060002060009150905080546101e19061054b565b80601f016020809104026020016040519081016040528092919081815260200182805461020d9061054b565b801561025a5780601f1061022f5761010080835404028352916020019161025a565b820191906000526020600020905b81548152906001019060200180831161023d57829003601f168201915b505050505081565b6000604051905090565b600080fd5b600080fd5b6000819050919050565b61028981610276565b811461029457600080fd5b50565b6000813590506102a681610280565b92915050565b6000602082840312156102c2576102c161026c565b5b60006102d084828501610297565b91505092915050565b600081519050919050565b600082825260208201905092915050565b60005b838110156103135780820151818401526020810190506102f8565b60008484015250505050565b6000601f19601f8301169050919050565b600061033b826102d9565b61034581856102e4565b93506103558185602086016102f5565b61035e8161031f565b840191505092915050565b600060208201905081810360008301526103838184610330565b905092915050565b600080fd5b600080fd5b7f4e487b7100000000000000000000000000000000000000000000000000000000600052604160045260246000fd5b6103cd8261031f565b810181811067ffffffffffffffff821117156103ec576103eb610395565b5b80604052505050565b60006103ff610262565b905061040b82826103c4565b919050565b600067ffffffffffffffff82111561042b5761042a610395565b5b6104348261031f565b9050602081019050919050565b82818337600083830152505050565b600061046361045e84610410565b6103f5565b90508281526020810184848401111561047f5761047e610390565b5b61048a848285610441565b509392505050565b600082601f8301126104a7576104a661038b565b5b81356104b7848260208601610450565b91505092915050565b600080604083850312156104d7576104d661026c565b5b60006104e585828601610297565b925050602083013567ffffffffffffffff81111561050657610505610271565b5b61051285828601610492565b9150509250929050565b7f4e487b7100000000000000000000000000000000000000000000000000000000600052602260045260246000fd5b6000600282049050600182168061056357607f821691505b6020821081036105765761057561051c565b5b50919050565b60008190508160005260206000209050919050565b60006020601f8301049050919050565b600082821b905092915050565b6000600883026105de7fffffffffffffffffffffffffffffffffffffffffffffffffffffffffffffffff826105a1565b6105e886836105a1565b95508019841693508086168417925050509392505050565b6000819050919050565b600061062561062061061b84610276565b610600565b610276565b9050919050565b6000819050919050565b61063f8361060a565b61065361064b8261062c565b8484546105ae565b825550505050565b600090565b61066861065b565b610673818484610636565b505050565b5b818110156106975761068c600082610660565b600181019050610679565b5050565b601f8211156106dc576106ad8161057c565b6106b684610591565b810160208510156106c5578190505b6106d96106d185610591565b830182610678565b50505b505050565b600082821c905092915050565b60006106ff600019846008026106e1565b1980831691505092915050565b600061071883836106ee565b9150826002028217905092915050565b610731826102d9565b67ffffffffffffffff81111561074a57610749610395565b5b610754825461054b565b61075f82828561069b565b600060209050601f8311600181146107925760008415610780578287015190505b61078a858261070c565b8655506107f2565b601f1984166107a08661057c565b60005b828110156107c8578489015182556001820191506020850194506020810190506107a3565b868310156107e557848901516107e1601f8916826106ee565b8355505b6001600288020188555050505b50505050505056fea264697066735822122061cc6420545ce6b4639759fcaf70f81a7e3884d18b61d561fb96bbf8454f37e064736f6c63430008140033",
  "linkReferences": {},
  "deployedLinkReferences": {}
}