{
  "_format": "hh-sol-artifact-1",
  "contractName": "MedLedgerOrgan",
  "sourceName": "contracts/MedLedgerOrgan.sol",
  "abi": [
    {
      "anonymous": false,
      "inputs": [
        {
          "indexed": true,
          "internalType": "uint256",
          "name": "id",
          "type": "uint256"
        },
        {
          "indexed": false,
          "internalType": "string",
          "name": "name",
          "type": "string"
        }
      ],
      "name": "DonorRegistered",
      "type": "event"
    },
    {
      "inputs": [],
      "name": "donorCount",
      "outputs": [
        {
          "internalType": "uint256",
          "name": "",
          "type": "uint256"
        }
      ],
      "stateMutability": "view",
      "type": "function"
    },
    {
      "inputs": [
        {
          "internalType": "uint256",
          "name": "",
          "type": "uint256"
        }
      ],
      "name": "donors",
      "outputs": [
        {
          "internalType": "string",
          "name": "name",
          "type": "string"
        },
        {
          "internalType": "string",
          "name": "organ",
          "type": "string"
        },
        {
          "internalType": "string",
          "name": "bloodGroup",
          "type": "string"
        },
        {
          "internalType": "string",
          "name": "location",
          "type": "string"
        },
        {
          "internalType": "string",
          "name": "ipfsHash",
          "type": "string"
        },
        {
          "internalType": "bool",
          "name": "consent",
          "type": "bool"
        }
      ],
      "stateMutability": "view",
      "type": "function"
    },
    {
      "inputs": [
        {
          "internalType": "uint256",
          "name": "id",
          "type": "uint256"
        }
      ],
      "name": "getDonorById",
      "outputs": [
        {
          "components": [
            {
              "internalType": "string",
              "name": "name",
              "type": "string"
            },
            {
              "internalType": "string",
              "name": "organ",
              "type": "string"
            },
            {
              "internalType": "string",
              "name": "bloodGroup",
              "type": "string"
            },
            {
              "internalType": "string",
              "name": "location",
              "type": "string"
            },
            {
              "internalType": "string",
              "name": "ipfsHash",
              "type": "string"
            },
            {
              "internalType": "bool",
              "name": "consent",
              "type": "bool"
            }
          ],
          "internalType": "struct MedLedgerOrgan.Donor",
          "name": "",
          "type": "tuple"
        }
      ],
      "stateMutability": "view",
      "type": "function"
    },
    {
      "inputs": [
        {
          "internalType": "string",
          "name": "name",
          "type": "string"
        },
        {
          "internalType": "string",
          "name": "organ",
          "type": "string"
        },
        {
          "internalType": "string",
          "name": "bloodGroup",
          "type": "string"
        },
        {
          "internalType": "string",
          "name": "location",
          "type": "string"
        },
        {
          "internalType": "string",
          "name": "ipfsHash",
          "type": "string"
        },
        {
          "internalType": "bool",
          "name": "consent",
          "type": "bool"
        }
      ],
      "name": "registerDonor",
      "outputs": [],
      "stateMutability": "nonpayable",
      "type": "function"
    },
    {
      "inputs": [
        {
          "internalType": "uint256",
          "name": "id",
          "type": "uint256"
        }
      ],
      "name": "verifyConsent",
      "outputs": [
        {
          "internalType": "bool",
          "name": "",
          "type": "bool"
        }
      ],
      "stateMutability": "view",
      "type": "function"
    }
  ],
  "bytecode": "0x608060405234801561001057600080fd5b50611207806100206000396000f3fe608060405234801561001057600080fd5b50600436106100575760003560e01c80634abfa1631461005c5780639b22725814610091578063a86f809a146100ad578063c407670f146100dd578063c7bc45d0146100fb575b600080fd5b6100766004803603810190610071919061091f565b61012b565b604051610088969594939291906109f7565b60405180910390f35b6100ab60048036038101906100a69190610bdc565b61041c565b005b6100c760048036038101906100c2919061091f565b61054a565b6040516100d49190610df3565b60405180910390f35b6100e561086b565b6040516100f29190610e24565b60405180910390f35b6101156004803603810190610110919061091f565b610871565b6040516101229190610e3f565b60405180910390f35b600060205280600052604060002060009150905080600001805461014e90610e89565b80601f016020809104026020016040519081016040528092919081815260200182805461017a90610e89565b80156101c75780601f1061019c576101008083540402835291602001916101c7565b820191906000526020600020905b8154815290600101906020018083116101aa57829003601f168201915b5050505050908060010180546101dc90610e89565b80601f016020809104026020016040519081016040528092919081815260200182805461020890610e89565b80156102555780601f1061022a57610100808354040283529160200191610255565b820191906000526020600020905b81548152906001019060200180831161023857829003601f168201915b50505050509080600201805461026a90610e89565b80601f016020809104026020016040519081016040528092919081815260200182805461029690610e89565b80156102e35780601f106102b8576101008083540402835291602001916102e3565b820191906000526020600020905b8154815290600101906020018083116102c657829003601f168201915b5050505050908060030180546102f890610e89565b80601f016020809104026020016040519081016040528092919081815260200182805461032490610e89565b80156103715780601f1061034657610100808354040283529160200191610371565b820191906000526020600020905b81548152906001019060200180831161035457829003601f168201915b50505050509080600401805461038690610e89565b80601f01602080910402602001604051908101604052809291908181526020018280546103b290610e89565b80156103ff5780601f106103d4576101008083540402835291602001916103ff565b820191906000526020600020905b8154815290600101906020018083116103e257829003601f168201915b5050505050908060050160009054906101000a900460ff16905086565b6040518060c00160405280878152602001868152602001858152602001848152602001838152602001821515815250600080600154815260200190815260200160002060008201518160000190816104749190611066565b50602082015181600101908161048a9190611066565b5060408201518160020190816104a09190611066565b5060608201518160030190816104b69190611066565b5060808201518160040190816104cc9190611066565b5060a08201518160050160006101000a81548160ff0219169083151502179055509050506001547f1bdcce1ea9671bb80abfa7dd6df7db3c66d992217b7128a264aacaa9c6637728876040516105229190611138565b60405180910390a26001600081548092919061053d90611189565b9190505550505050505050565b61055261089d565b6000808381526020019081526020016000206040518060c001604052908160008201805461057f90610e89565b80601f01602080910402602001604051908101604052809291908181526020018280546105ab90610e89565b80156105f85780601f106105cd576101008083540402835291602001916105f8565b820191906000526020600020905b8154815290600101906020018083116105db57829003601f168201915b5050505050815260200160018201805461061190610e89565b80601f016020809104026020016040519081016040528092919081815260200182805461063d90610e89565b801561068a5780601f1061065f5761010080835404028352916020019161068a565b820191906000526020600020905b81548152906001019060200180831161066d57829003601f168201915b505050505081526020016002820180546106a390610e89565b80601f01602080910402602001604051908101604052809291908181526020018280546106cf90610e89565b801561071c5780601f106106f15761010080835404028352916020019161071c565b820191906000526020600020905b8154815290600101906020018083116106ff57829003601f168201915b5050505050815260200160038201805461073590610e89565b80601f016020809104026020016040519081016040528092919081815260200182805461076190610e89565b80156107ae5780601f10610783576101008083540402835291602001916107ae565b820191906000526020600020905b81548152906001019060200180831161079157829003601f168201915b505050505081526020016004820180546107c790610e89565b80601f01602080910402602001604051908101604052809291908181526020018280546107f390610e89565b80156108405780601f1061081557610100808354040283529160200191610840565b820191906000526020600020905b81548152906001019060200180831161082357829003601f168201915b505050505081526020016005820160009054906101000a900460ff1615151515815250509050919050565b60015481565b600080600083815260200190815260200160002060050160009054906101000a900460ff169050919050565b6040518060c0016040528060608152602001606081526020016060815260200160608152602001606081526020016000151581525090565b6000604051905090565b600080fd5b600080fd5b6000819050919050565b6108fc816108e9565b811461090757600080fd5b50565b600081359050610919816108f3565b92915050565b600060208284031215610935576109346108df565b5b60006109438482850161090a565b91505092915050565b600081519050919050565b600082825260208201905092915050565b60005b8381101561098657808201518184015260208101905061096b565b60008484015250505050565b6000601f19601f8301169050919050565b60006109ae8261094c565b6109b88185610957565b93506109c8818560208601610968565b6109d181610992565b840191505092915050565b60008115159050919050565b6109f1816109dc565b82525050565b600060c0820190508181036000830152610a1181896109a3565b90508181036020830152610a2581886109a3565b90508181036040830152610a3981876109a3565b90508181036060830152610a4d81866109a3565b90508181036080830152610a6181856109a3565b9050610a7060a08301846109e8565b979650505050505050565b600080fd5b600080fd5b7f4e487b7100000000000000000000000000000000000000000000000000000000600052604160045260246000fd5b610abd82610992565b810181811067ffffffffffffffff82111715610adc57610adb610a85565b5b80604052505050565b6000610aef6108d5565b9050610afb8282610ab4565b919050565b600067ffffffffffffffff821115610b1b57610b1a610a85565b5b610b2482610992565b9050602081019050919050565b82818337600083830152505050565b6000610b53610b4e84610b00565b610ae5565b905082815260208101848484011115610b6f57610b6e610a80565b5b610b7a848285610b31565b509392505050565b600082601f830112610b9757610b96610a7b565b5b8135610ba7848260208601610b40565b91505092915050565b610bb9816109dc565b8114610bc457600080fd5b50565b600081359050610bd681610bb0565b92915050565b60008060008060008060c08789031215610bf957610bf86108df565b5b600087013567ffffffffffffffff811115610c1757610c166108e4565b5b610c2389828a01610b82565b965050602087013567ffffffffffffffff811115610c4457610c436108e4565b5b610c5089828a01610b82565b955050604087013567ffffffffffffffff811115610c7157610c706108e4565b5b610c7d89828a01610b82565b945050606087013567ffffffffffffffff811115610c9e57610c9d6108e4565b5b610caa89828a01610b82565b935050608087013567ffffffffffffffff811115610ccb57610cca6108e4565b5b610cd789828a01610b82565b92505060a0610ce889828a01610bc7565b9150509295509295509295565b600082825260208201905092915050565b6000610d118261094c565b610d1b8185610cf5565b9350610d2b818560208601610968565b610d3481610992565b840191505092915050565b610d48816109dc565b82525050565b600060c0830160008301518482036000860152610d6b8282610d06565b91505060208301518482036020860152610d858282610d06565b91505060408301518482036040860152610d9f8282610d06565b91505060608301518482036060860152610db98282610d06565b91505060808301518482036080860152610dd38282610d06565b91505060a0830151610de860a0860182610d3f565b508091505092915050565b60006020820190508181036000830152610e0d8184610d4e565b905092915050565b610e1e816108e9565b82525050565b6000602082019050610e396000830184610e15565b92915050565b6000602082019050610e5460008301846109e8565b92915050565b7f4e487b7100000000000000000000000000000000000000000000000000000000600052602260045260246000fd5b60006002820490506001821680610ea157607f821691505b602082108103610eb457610eb3610e5a565b5b50919050565b60008190508160005260206000209050919050565b60006020601f8301049050919050565b600082821b905092915050565b600060088302610f1c7fffffffffffffffffffffffffffffffffffffffffffffffffffffffffffffffff82610edf565b610f268683610edf565b95508019841693508086168417925050509392505050565b6000819050919050565b6000610f63610f5e610f59846108e9565b610f3e565b6108e9565b9050919050565b6000819050919050565b610f7d83610f48565b610f91610f8982610f6a565b848454610eec565b825550505050565b600090565b610fa6610f99565b610fb1818484610f74565b505050565b5b81811015610fd557610fca600082610f9e565b600181019050610fb7565b5050565b601f82111561101a57610feb81610eba565b610ff484610ecf565b81016020851015611003578190505b61101761100f85610ecf565b830182610fb6565b50505b505050565b600082821c905092915050565b600061103d6000198460080261101f565b1980831691505092915050565b6000611056838361102c565b9150826002028217905092915050565b61106f8261094c565b67ffffffffffffffff81111561108857611087610a85565b5b6110928254610e89565b61109d828285610fd9565b600060209050601f8311600181146110d057600084156110be578287015190505b6110c8858261104a565b865550611130565b601f1984166110de86610eba565b60005b82811015611106578489015182556001820191506020850194506020810190506110e1565b86831015611123578489015161111f601f89168261102c565b8355505b6001600288020188555050505b505050505050565b6000602082019050818103600083015261115281846109a3565b905092915050565b7f4e487b7100000000000000000000000000000000000000000000000000000000600052601160045260246000fd5b6000611194826108e9565b91507fffffffffffffffffffffffffffffffffffffffffffffffffffffffffffffffff82036111c6576111c561115a565b5b60018201905091905056fea264697066735822122094c0b3e33a8f67aca524ffeab83e25075b8c55281128fa901c25db153df32dc764736f6c63430008140033",
  "linkReferences": {},
  "deployedLinkReferences": {}
}